:100000000C942B010C9448010C9448010C94480169
:100010000C9448010C9448010C9448010C9448013C
:100020000C9448010C9448010C9448010C9448012C
:100030000C9448010C9448010C9448010C9448011C
:100040000C9448010C9448010C9448010C9448010C
:100050000C9448010C9448010C9448010C944801FC
:100060000C9448010C9448010000000000818118A4
:1000700081810007000700147F147F14242A7F2A3F
:10008000122313086462364955225000050300000C
:10009000001C2241000041221C0014083E081408E4
:1000A000083E0808005030000008080808080060F2
:1000B00060000020100804023E5149453E00427F86
:1000C000400042615149462141454B311814127F8D
:1000D0001027454545393C4A494930017109050316
:1000E0003649494936064949291E0036360000007E
:1000F0005636000008142241001414141414004150
:100100002214080201510906324979413E7E11113B
:10011000117E7F494949363E414141227F4141227A
:100120001C7F494949417F090909013E4149497AF2
:100130007F0808087F00417F41002040413F017F48
:10014000081422417F404040407F020C027F7F0420
:1001500008107F3E4141413E7F090909063E415159
:10016000215E7F09192946464949493101017F012C
:10017000013F4040403F1F2040201F3F4038403F4C
:100180006314081463070870080761514945430068
:100190007F41410002040810200041417F00040219
:1001A0000102044040404040000102040020545439
:1001B00054787F48444438384444442038444448C0
:1001C0007F3854545418087E0901020C5252523E92
:1001D0007F0804047800447D40002040443D007FB7
:1001E0001028440000417F40007C041804787C08FB
:1001F00004047838444444387C1414140808141453
:10020000147C7C080404084854545420043F44409F
:10021000203C4040207C1C2040201C3C4030403C86
:1002200044281028440C5050503C4464544C440022
:100230000836410000007F00000041360800100829
:100240000810080000000000040100961100963A12
:1002500001550A2900C811241FBECFEFD8E0DEBF28
:10026000CDBF11E0A0E0B1E0EEEFFAE002C00590F2
:100270000D92A831B107D9F721E0A8E1B1E001C0A2
:100280001D92AC31B207E1F70E9411050C947D0577
:100290000C94000094B1986294B924982C9A8064CC
:1002A0008CBD8DB581608DBD08958EBD0DB407FEEA
:1002B000FDCF8EB50895FC01A281B3819C9121E010
:1002C00030E0A901048002C0440F551F0A94E2F7F0
:1002D000842F809589238C938FE891E00197F1F723
:1002E00000C00000A281B3818C91048002C0220F63
:1002F000331F0A94E2F7282B2C939FEF2BED85E018
:10030000915020408040E1F700C0000008950F9315
:100310001F93CF93DF938C01862FF801A081B181C9
:100320001296ED91FC9113972081C1E0D0E0AE01CF
:1003300014960C9002C0440F551F0A94E2F7942FB4
:10034000909592239083F801A481B5811296ED9146
:10035000FC9113972081AE0114960C9002C0440FBB
:10036000551F0A94E2F7942F9095922390830E9450
:100370005501F801A081B1811296ED91FC9113977E
:10038000808114960C9002C0CC0FDD1F0A94E2F716
:10039000C82BC083DF91CF911F910F91089569E21F
:1003A0000C94870168E20C94870161E20C94870148
:1003B00060E20C9487010F931F93CF93DF938C011E
:1003C000862FF801A081B1811296ED91FC911397CF
:1003D0002081C1E0D0E0AE0114960C9002C0440F21
:1003E000551F0A94E2F7942F909592239083F80179
:1003F000A481B5811296ED91FC91139790819E0195
:1004000014960C9002C0220F331F0A94E2F7292B96
:1004100020830E945501F801A081B1811296ED91CF
:10042000FC911397808114960C9002C0CC0FDD1FB5
:100430000A94E2F7C82BC083DF91CF911F910F91EF
:1004400008950F931F93CF938C01C62F66E30E94EC
:1004500087016C2FC8010E94DB01C07FC03611F0FC
:10046000C03A61F480E491E090930101809300012F
:1004700080EF90E09093030180930201CF911F9150
:100480000F910895FF920F931F93CF93DF938C01E9
:10049000F62E872FF801A081B1811296ED91FC9183
:1004A00013972081C1E0D0E0AE0114960C9002C0F9
:1004B000440F551F0A94E2F7942F9095922390834E
:1004C000F801A481B5811296ED91FC91139790816A
:1004D0009E0114960C9002C0220F331F0A94E2F77B
:1004E000292B20830E9455018F2D0E945501F80170
:1004F000A081B1811296ED91FC91139780811496A1
:100500000C9002C0CC0FDD1F0A94E2F7C82BC08309
:10051000DF91CF911F910F91FF900895AF92BF92FD
:10052000CF92DF92EF92FF920F931F93CF93DF93BF
:100530004617570770F1E0910001F0910101E417AF
:10054000F50738F10217130720F1E0910201F0914D
:100550000301E217F307E8F079016A015B01EC019E
:100560006AE20E948701B501CE010E944202B601F3
:10057000CE010E9442026BE2CE010E948701B701C8
:10058000CE010E944202B801CE010E94420280E0E8
:1005900001C081E0DF91CF911F910F91FF90EF900B
:1005A000DF90CF90BF90AF9008958F929F92AF92BF
:1005B000BF92CF92DF92EF92FF920F931F93CF9350
:1005C000DF93EC018B0149015A016CE20E94870123
:1005D00064017501C114D104E104F10451F0B801C2
:1005E000CE010E94420281E0C81AD108E108F10858
:1005F000F1CFDF91CF911F910F91FF90EF90DF909E
:10060000CF90BF90AF909F908F900895EF92FF9200
:100610000F931F93CF93DF93EC017B01E0E0F1E0B8
:10062000028113814081518120E030E060E070E080
:100630000E948E0220E03CE241E050E0B701CE0192
:10064000DF91CF911F910F91FF90EF900C94D50205
:10065000AF92BF92CF92DF92EF92FF920F931F93D0
:10066000CF93DF936C015B01EA01780146175707CE
:1006700018F4EB01A62EB12C8901AE01B501C6011B
:100680000E948E029E012A193B0940E050E0B7010A
:10069000C601DF91CF911F910F91FF90EF90DF90F6
:1006A000CF90BF90AF900C94D502AF92BF92CF92F3
:1006B000DF92EF92FF920F931F93CF93DF936C0122
:1006C0005A01E90178012417350718F4EA01A42E2C
:1006D000B12C8E019501AB01C6010E948E029E01D4
:1006E0002A193B0940E050E0B701C601DF91CF91E4
:1006F0001F910F91FF90EF90DF90CF90BF90AF9040
:100700000C94D502EF92FF920F931F93CF93DF9338
:10071000EC017901242F30E08901AB010E948E02A7
:1007200021E030E040E050E0B701CE01DF91CF9111
:100730001F910F91FF90EF900C94D5022F923F9252
:100740004F925F926F927F928F929F92AF92BF92E1
:10075000CF92DF92EF92FF920F931F93CF93DF938D
:1007600000D000D000D0CDB7DEB75C016B014A01EC
:100770003E832D831C830B83CA01861B970B021BB0
:10078000130B97FF06C09195819591092FEF3FEFCD
:1007900002C021E030E03A83298317FF07C011959A
:1007A0000195110922242A94322C03C02224239477
:1007B000312C2801440C551C3C01660C771C081791
:1007C000190764F58201081B190B97014D81B601C9
:1007D000C5010E948203C814D90479F189819A81E4
:1007E000C80ED91E17FD08C02D813E81220D331D74
:1007F0003E832D8306191709040D151DE6CF8D8143
:100800009E81820D931D9E838D831016110634F0F8
:1008100029813A81C20ED31E040D151D0619170930
:1008200097014D81B601C5010E9482038D819E8191
:100830002B813C818217930711F780E026960FB633
:10084000F894DEBF0FBECDBFDF91CF911F910F9106
:10085000FF90EF90DF90CF90BF90AF909F908F90E0
:100860007F906F905F904F903F902F9008958823D6
:1008700041F0EFE9FFE03197F1F700C0000081504F
:10088000F6CF0895AF92BF92DF92EF92FF920F934F
:100890001F93CF93DF937C01EB012196FB01D49052
:1008A000DD2019F1FE016491C7010E9487018E01CC
:1008B0000E5F1F4FFE013196C491DC2F5801DD23DE
:1008C00051F0F5016491C7010E94DB01D150C501CF
:1008D00001965C01F4CFF801EC0FF11DEF012196B8
:1008E00084910E943704DA94DBCFDF91CF911F917E
:1008F0000F91FF90EF90DF90BF90AF9008951F93FE
:10090000CF93DF93EC01162F80E10E944A01AE8164
:10091000BF81ED91FC911197408181E090E09C01B5
:1009200014960C9002C0220F331F0A94E2F7242B76
:100930002083A881B981ED91FC91119740819C01A0
:1009400014960C9002C0220F331F0A94E2F7242B56
:100950002083AA81BB81ED91FC91119740819C017C
:1009600014960C9002C0220F331F0A94E2F7242B36
:100970002083AC81BD81ED91FC91119740819C0158
:1009800014960C9002C0220F331F0A94E2F7242B16
:100990002083AE81BF811296ED91FC911397408127
:1009A0009C0114960C9002C0220F331F0A94E2F7A8
:1009B000242B2083A881B9811296ED91FC91139785
:1009C00040819C0114960C9002C0220F331F0A94A0
:1009D000E2F7242B2083AA81BB811296ED91FC9132
:1009E0001397208114960C9002C0880F991F0A94C7
:1009F000E2F7822B80838FE39CE90197F1F700C037
:100A000000008E819F810E945B0168E472E0CE014C
:100A10000E944204612FCE01DF91CF911F910C946F
:100A20002102EF92FF920F931F93CF93DF93CDB7E5
:100A3000DEB76C970FB6F894DEBF0FBECDBF85E072
:100A4000E4E0F1E0DE01589601900D928A95E1F71D
:100A500085E0E9E0F1E0DE01539601900D928A9580
:100A6000E1F785E0EEE0F1E0DE011E9601900D92E7
:100A70008A95E1F785E0E3E1F1E0DE011996019066
:100A80000D928A95E1F7CE0148969A83898305975E
:100A90009C838B830A979E838D83059698878F838B
:100AA00068EA0D970E947F046FEF7FEFCE010196F9
:100AB0000E940603E12CF12C0FEC10E0970140E4BA
:100AC00051E06AE070E0CE0101960E9428038FEFAA
:100AD000E81AF80A80EFE816F10471F780E090E078
:100AE0006C960FB6F894DEBF0FBECDBFDF91CF91ED
:0E0AF0001F910F91FF90EF900895F894FFCFA3
:100AFE00F0004001240025000224002500012400FE
:080B0E002500002A002B00075E
:00000001FF
