:100000000C942D010C944A010C944A010C944A0161
:100010000C944A010C944A010C944A010C944A0134
:100020000C944A010C944A010C944A010C944A0124
:100030000C944A010C944A010C944A010C944A0114
:100040000C944A010C944A010C944A010C944A0104
:100050000C944A010C944A010C944A010C944A01F4
:100060000C944A010C944A010000000000818118A0
:1000700081810007000700147F147F14242A7F2A3F
:10008000122313086462364955225000050300000C
:10009000001C2241000041221C0014083E081408E4
:1000A000083E0808005030000008080808080060F2
:1000B00060000020100804023E5149453E00427F86
:1000C000400042615149462141454B311814127F8D
:1000D0001027454545393C4A494930017109050316
:1000E0003649494936064949291E0036360000007E
:1000F0005636000008142241001414141414004150
:100100002214080201510906324979413E7E11113B
:10011000117E7F494949363E414141227F4141227A
:100120001C7F494949417F090909013E4149497AF2
:100130007F0808087F00417F41002040413F017F48
:10014000081422417F404040407F020C027F7F0420
:1001500008107F3E4141413E7F090909063E415159
:10016000215E7F09192946464949493101017F012C
:10017000013F4040403F1F2040201F3F4038403F4C
:100180006314081463070870080761514945430068
:100190007F41410002040810200041417F00040219
:1001A0000102044040404040000102040020545439
:1001B00054787F48444438384444442038444448C0
:1001C0007F3854545418087E0901020C5252523E92
:1001D0007F0804047800447D40002040443D007FB7
:1001E0001028440000417F40007C041804787C08FB
:1001F00004047838444444387C1414140808141453
:10020000147C7C080404084854545420043F44409F
:10021000203C4040207C1C2040201C3C4030403C86
:1002200044281028440C5050503C4464544C440022
:100230000836410000007F00000041360800100829
:100240000810080000000000050100961100963A11
:1002500001550A3601A8002900C811241FBECFEF9E
:10026000D8E0DEBFCDBF11E0A0E0B1E0E2EBFAE004
:1002700002C005900D92A431B107D9F721E0A4E1A5
:10028000B1E001C01D92A831B207E1F70E94D70486
:100290000C9457050C94000094B1986294B924987A
:1002A0002C9A80648CBD8DB581608DBD08958EBD06
:1002B0000DB407FEFDCF8EB50895FC01A281B38178
:1002C0009C9121E030E0A901048002C0440F551F39
:1002D0000A94E2F7842F809589238C938FE891E02C
:1002E0000197F1F700C00000A281B3818C910480D6
:1002F00002C0220F331F0A94E2F7282B2C939FEFA2
:100300002BED85E0915020408040E1F700C00000D7
:1003100008950F931F93CF93DF938C01862FF801DD
:10032000A081B1811296ED91FC9113972081C1E0DB
:10033000D0E0AE0114960C9002C0440F551F0A94F1
:10034000E2F7942F909592239083F801A481B581D0
:100350001296ED91FC9113972081AE0114960C90AA
:1003600002C0440F551F0A94E2F7942F90959223F0
:1003700090830E945701F801A081B1811296ED91FE
:10038000FC911397808114960C9002C0CC0FDD1F56
:100390000A94E2F7C82BC083DF91CF911F910F9190
:1003A000089569E20C94890168E20C94890161E284
:1003B0000C94890160E20C9489010F931F93CF93F1
:1003C000DF938C01862FF801A081B1811296ED9107
:1003D000FC9113972081C1E0D0E0AE0114960C90FF
:1003E00002C0440F551F0A94E2F7942F9095922370
:1003F0009083F801A481B5811296ED91FC91139739
:1004000090819E0114960C9002C0220F331F0A9413
:10041000E2F7292B20830E945701F801A081B181C6
:100420001296ED91FC911397808114960C9002C066
:10043000CC0FDD1F0A94E2F7C82BC083DF91CF9168
:100440001F910F910895FF920F931F93CF93DF9306
:100450008C01F62E872FF801A081B1811296ED91C3
:10046000FC9113972081C1E0D0E0AE0114960C906E
:1004700002C0440F551F0A94E2F7942F90959223DF
:100480009083F801A481B5811296ED91FC911397A8
:1004900090819E0114960C9002C0220F331F0A9483
:1004A000E2F7292B20830E9457018F2D0E945701CC
:1004B000F801A081B1811296ED91FC911397808192
:1004C00014960C9002C0CC0FDD1F0A94E2F7C82BE3
:1004D000C083DF91CF911F910F91FF900895CF922C
:1004E000DF92EF92FF920F931F93CF93DF93461704
:1004F000570738F1403431E0530718F5021708F177
:10050000203FF8F4122F6A017B01EC016AE20E949D
:100510008901B701CE010E942302B601CE010E94DB
:1005200023026BE2CE010E948901612F70E0CE01AF
:100530000E942302602F70E0CE010E94230280E01F
:1005400001C081E0DF91CF911F910F91FF90EF905B
:10055000DF90CF9008958F929F92AF92BF92CF92EB
:10056000DF92EF92FF920F931F93CF93DF93EC01F3
:100570008B0149015A016CE20E94890164017501F5
:10058000C114D104E104F10451F0B801CE010E947C
:10059000230281E0C81AD108E108F108F1CFDF9108
:1005A000CF911F910F91FF90EF90DF90CF90BF9070
:1005B000AF909F908F900895EF92FF920F93CF93FB
:1005C000DF93EC017B010FEE20E04FE351E060E0B0
:1005D00070E00E946F0220E03CE241E050E0B70191
:1005E000CE01DF91CF910F91FF90EF900C94AB0271
:1005F000AF92BF92CF92DF92EF92FF920F931F9331
:10060000CF93DF937C015B01EA016801461757072E
:1006100018F4EB01A62EB12C022FAE01B501C701D3
:100620000E946F029E012A193B0940E050E0B6018A
:10063000C701DF91CF911F910F91FF90EF90DF9055
:10064000CF90BF90AF900C94AB02DF92EF92FF92ED
:100650000F931F93CF93DF93EC01D42E7801142FC7
:10066000421708F4122F012F2D2DAB01CE010E944D
:100670006F02212F30E02D193109032E000C440B9D
:10068000550BB701CE01DF91CF911F910F91FF90D4
:10069000EF90DF900C94AB02EF92FF920F93CF9309
:1006A000DF93EC017901042F242FAB010E946F022C
:1006B00021E030E040E050E0B701CE01DF91CF9182
:1006C0000F91FF90EF900C94AB022F923F924F92BC
:1006D0005F926F927F928F929F92AF92BF92CF92D2
:1006E000DF92EF92FF920F931F93CF93DF9300D08F
:1006F0001F92CDB7DEB75C016B014A01722E602EEE
:10070000CA01861B970B202F30E0271931093B8344
:100710002A8397FF07C091958195910922242A94F5
:10072000322C03C022242394312C2A813B8137FFB1
:1007300008C03195219531093B832A833FEF3983E6
:1007400002C021E029834A805B80440C551C8C0147
:10075000000F111F2A813B812817390784F5920168
:10076000281B390B3B832A839701472DB601C5010E
:100770000E944C03C814D90481F1C20CD31C8A8195
:100780009B8197FD08C09981790E2A813B81201BAE
:10079000310B3B832A838A819B81840D951D9B832A
:1007A0008A83E2CF3981730E8A819B8118161906DC
:1007B00034F0C20CD31C840D951D9B838A832A813F
:1007C0003B81201B310B3B832A839701472DB601C8
:1007D000C5010E944C037610E5CF80E00F900F908A
:1007E0000F90DF91CF911F910F91FF90EF90DF90CD
:1007F000CF90BF90AF909F908F907F906F905F90C1
:100800004F903F902F900895882341F0EFE9FFE04B
:100810003197F1F700C000008150F6CF0895AF92F4
:10082000BF92DF92EF92FF920F931F93CF93DF93CC
:100830007C01EB012196FB01D490DD2019F1FE0132
:100840006491C7010E9489018E010E5F1F4FFE0156
:100850003196C491DC2F5801DD2351F0F5016491EC
:10086000C7010E94DD01D150C50101965C01F4CFA2
:10087000F801EC0FF11DEF01219684910E94040410
:10088000DA94DBCFDF91CF911F910F91FF90EF9022
:10089000DF90BF90AF900895CF93DF93EC0180E19C
:1008A0000E944C01AE81BF81ED91FC911197408176
:1008B00081E090E09C0114960C9002C0220F331F3F
:1008C0000A94E2F7242B2083A881B981ED91FC9151
:1008D000119740819C0114960C9002C0220F331F87
:1008E0000A94E2F7242B2083AA81BB81ED91FC912D
:1008F000119740819C0114960C9002C0220F331F67
:100900000A94E2F7242B2083AC81BD81ED91FC9108
:10091000119740819C0114960C9002C0220F331F46
:100920000A94E2F7242B2083AE81BF811296ED91C9
:10093000FC91139740819C0114960C9002C0220FE9
:10094000331F0A94E2F7242B2083A881B9811296E1
:10095000ED91FC91139740819C0114960C9002C07C
:10096000220F331F0A94E2F7242B2083AA81BB8134
:100970001296ED91FC911397208114960C9002C071
:10098000880F991F0A94E2F7822B80838FE39CE9FA
:100990000197F1F700C000008E819F810E945D01E8
:1009A00068E472E0CE01DF91CF910C940F040F93B5
:1009B0001F93CF93DF93CDB7DEB76C970FB6F89444
:1009C000DEBF0FBECDBF85E0E0E0F1E0DE0158966E
:1009D00001900D928A95E1F785E0E5E0F1E0DE0116
:1009E000539601900D928A95E1F785E0EAE0F1E0F7
:1009F000DE011E9601900D928A95E1F785E0EFE009
:100A0000F1E0DE01199601900D928A95E1F7CE0191
:100A100048969A83898305979C838B830A979E8344
:100A20008D83059698878F830D970E944C046FECF9
:100A300070E0CE0101960E94DC0200E01CEF2FE086
:100A40004FE351E06AE070E0CE0101960E94F802A7
:100A50002FEE40E060EA70E0CE0101960E9425038F
:100A60002FEF83ED90E3215080409040E1F700C0EC
:100A70000000CE0101960E94D7012FEF83ED90E395
:100A8000215080409040E1F700C00000CE01019667
:100A90000E94DA0180E090E06C960FB6F894DEBF19
:100AA0000FBECDBFDF91CF911F910F910895F894A4
:020AB000FFCF76
:100AB2002400250002240025000124002500002A2C
:040AC200002B0007FE
:00000001FF
